:0305610002047120
:0505570012056180FEA9
:060243008B088A09890AFC
:10024900E4F50EF50DF50CF50B75BC80AB08AA09A4
:10025900A90A90000312001C14600A14600C1460AF
:100269000E2403800D43BC20800843BC4080034317
:10027900BC6090000112001CB40800505A90028D15
:10028900F82828730202A50202AA0202B20202BADF
:100299000202C20202CA0202D20202DA759D01807A
:1002A90036759D0243BC01802E759D0443BC0280B6
:1002B90026759D0843BC03801E759D1043BC0480B0
:1002C90016759D2043BC05800E759D4043BC068074
:1002D90006759D8043BC0743972043BC08E5BC30A5
:1002E900E4FBE4F5BCF59DAB08AA09A90A120003D1
:1002F900D39400405DAFBDE48F0EF50DF50CF50B01
:10030900AE0DAD0CAC0B78081201668F0E8E0D8DFB
:100319000C8C0BAFBEE4FCFDFEE50E2FF50EEE35A1
:100329000DF50DED350CF50CEC350BF50B900004C6
:10033900120179E4FB7A04F9F8120049AB0EAA0D0F
:10034900A90CA80B1200D48F0E8E0D8D0C8C0B02EC
:1003590003F3AB08AA09A90A90000212001CB40809
:10036900209000041201A9AFBEE4FCFDFE12004971
:10037900E4FB7A01F9F81200D48F0E8E0D8D0C8CE6
:100389000BAB08AA09A90A90000212001C640A70A2
:1003990059AFBD8F0EF50DF50CF50BAE0DAD0CACCF
:1003A9000B78081201668F0E8E0D8D0C8C0BAFBE6B
:1003B900E4FCFDFEE50E2FF50EEE350DF50DED35E0
:1003C9000CF50CEC350BF50B900004120179AB0E12
:1003D900AA0DA90CA80B120049E4FB7A04F9F8123A
:1003E90000D48F0E8E0D8D0C8C0BE4F5BCF5BDF58C
:0503F900BEAE0DAF0EC9
:0103FE0022DC
:10048B00D3EF9400EE9400400F7D1E7C2BDCFEDD41
:08049B00FCEF1F70EB1E80E86E
:0104A3002236
:04055C007F05DFFE3A
:010560002278
:06054A0000007F0CDFFE43
:010550002288
:10044C00E4F5C7F5C28FC48EC375C50143C780756B
:10045C00C65A75C6A5AFC253C710F5C6F5C5F5C4C7
:04046C00F5C3F5C21D
:010470002269
:0403FF00AB07AA0698
:10040300E4F5C7F5C2AF03AE028FC48EC38DC275C8
:10041300C50243C78075C65A75C6A5E5C754906023
:100423000AE4F5C7F5C6F5C57F0222AF03AE021293
:10043300044CEF6D600AE4F5C7F5C6F5C57F0122EC
:08044300E4F5C7F5C6F5C5FF9D
:01044B00228E
:06055100D2AF438F10221F
:09051600D2B2D288D2A8D2AF22E1
:09051F00D2B3D28AD2AAD2AF22D3
:0B050B00300204438F1022538FEF22B8
:09052800300303D2A822C2A8226C
:09053100300403D2AA22C2AA225E
:10047100E4F596F595759414759310F5B2F5B1F50B
:0A048100B4F5B37592407591A02206
:1004BC00759850438E01438E0475D7BF75D6FF4394
:0704CC008E10D2AFD2AC226A
:1004A40075AC1043AC4053D1FD75D5BF75D4FF4333
:0804B400D108D2AF43AF0822CA
:08053A008F993000FDC2002280
:080542008FAD3001FDC2012262
:1004D300120003FFD39400400C12053A740129F96A
:0604E300E43AFA80EB226E
:1004E900120003FFD39400400C120542740129F94C
:0604F900E43AFA80EB2258
:030000000204FFF8
:0C04FF00787FE4F6D8FD758120020557D7
:10000300BB010689828A83E0225002E722BBFE02FB
:09001300E32289828A83E493222E
:10001C00BB010CE58229F582E5833AF583E0225099
:10002C0006E92582F8E622BBFE06E92582F8E222E3
:0D003C00E58229F582E5833AF583E49322FD
:10004900E88FF0A4CC8BF0A42CFCE98EF0A42CFC56
:100059008AF0EDA42CFCEA8EF0A4CDA8F08BF0A4D4
:100069002DCC3825F0FDE98FF0A42CCD35F0FCEB33
:100079008EF0A4FEA9F0EB8FF0A4CFC5F02ECD39F8
:0F008900FEE43CFCEAA42DCE35F0FDE43CFC2265
:1000980075F008758200EF2FFFEE33FECD33CDCC1F
:1000A80033CCC58233C5829BED9AEC99E5829840A2
:1000B8000CF582EE9BFEED9AFDEC99FC0FD5F0D67F
:1000C800E4CEFBE4CDFAE4CCF9A88222B800C1B9A9
:1000D8000059BA002DEC8BF084CFCECDFCE5F0CBE7
:1000E800F97818EF2FFFEE33FEED33FDEC33FCEB20
:1000F80033FB10D703994004EB99FB0FD8E5E4F9DB
:10010800FA227818EF2FFFEE33FEED33FDEC33FCC7
:10011800C933C910D7059BE99A4007EC9BFCE99ABB
:10012800F90FD8E0E4C9FAE4CCFB2275F010EF2F00
:10013800FFEE33FEED33FDCC33CCC833C810D70700
:100148009BEC9AE899400AED9BFDEC9AFCE899F83B
:0E0158000FD5F0DAE4CDFBE4CCFAE4C8F922CE
:10016600E8600FEFC333FFEE33FEED33FDEC33FCF7
:03017600D8F1229B
:10017900BB010DE58229F582E5833AF5830201E5A4
:100189005007E92582F80201D9BBFE07E92582F863
:100199000201F1E58229F582E5833AF5830201FD41
:1001A900BB010DE58229F582E5833AF58302021A3E
:1001B9005007E92582F802020DBBFE07E92582F8FE
:1001C900020226E58229F582E5833AF583020233A4
:0C01D900E6FC08E6FD08E6FE08E6FF2252
:0C01E500E0FCA3E0FDA3E0FEA3E0FF228D
:0C01F100E2FC08E2FD08E2FE08E2FF224A
:1001FD00E493FC740193FD740293FE740393FF2248
:0D020D00E6FB08E6F908E6FA08E6CBF82261
:0C021A00E0F8A3E0F9A3E0FAA3E0FB2267
:0D022600E2FB08E2F908E2FA08E2CBF82258
:10023300E493F8740193F9740293FA740393FB2221
:00000001FF
